{
  "contractName": "FactoryClone",
  "abi": [
    {
      "inputs": [],
      "stateMutability": "nonpayable",
      "type": "constructor"
    },
    {
      "inputs": [],
      "name": "motherAddress",
      "outputs": [
        {
          "internalType": "address",
          "name": "",
          "type": "address"
        }
      ],
      "stateMutability": "view",
      "type": "function"
    },
    {
      "inputs": [
        {
          "internalType": "address",
          "name": "_motherAddress",
          "type": "address"
        }
      ],
      "name": "setMotherAddress",
      "outputs": [],
      "stateMutability": "nonpayable",
      "type": "function"
    },
    {
      "inputs": [],
      "name": "createToken",
      "outputs": [
        {
          "internalType": "address",
          "name": "",
          "type": "address"
        }
      ],
      "stateMutability": "nonpayable",
      "type": "function"
    }
  ],
  "bytecode": "0x608060405234801561001057600080fd5b5060405161001d9061007e565b604051809103906000f080158015610039573d6000803e3d6000fd5b506000806101000a81548173ffffffffffffffffffffffffffffffffffffffff021916908373ffffffffffffffffffffffffffffffffffffffff16021790555061008b565b611c6280610a8083390190565b6109e68061009a6000396000f3fe608060405234801561001057600080fd5b50600436106100415760003560e01c806325a24754146100465780637bda52bc146100645780639cbf9e3614610080575b600080fd5b61004e61009e565b60405161005b91906105b2565b60405180910390f35b61007e6004803603810190610079919061060d565b6100c2565b005b610088610105565b60405161009591906105b2565b60405180910390f35b60008054906101000a900473ffffffffffffffffffffffffffffffffffffffff1681565b806000806101000a81548173ffffffffffffffffffffffffffffffffffffffff021916908373ffffffffffffffffffffffffffffffffffffffff16021790555050565b60008061013160008054906101000a900473ffffffffffffffffffffffffffffffffffffffff166103f5565b905060008060009054906101000a900473ffffffffffffffffffffffffffffffffffffffff1690508073ffffffffffffffffffffffffffffffffffffffff16635fe8e7cc6040518163ffffffff1660e01b815260040160006040518083038186803b15801561019f57600080fd5b505afa1580156101b3573d6000803e3d6000fd5b505050506040513d6000823e3d601f19601f820116820180604052508101906101dc91906107a8565b600190805190602001906101f19291906104ca565b5060008290508073ffffffffffffffffffffffffffffffffffffffff16638129fc1c6040518163ffffffff1660e01b8152600401600060405180830381600087803b15801561023f57600080fd5b505af1158015610253573d6000803e3d6000fd5b5050505060005b6001805490508110156103eb578173ffffffffffffffffffffffffffffffffffffffff166395bc851560018381548110610297576102966107f1565b5b9060005260206000200160009054906101000a900473ffffffffffffffffffffffffffffffffffffffff168573ffffffffffffffffffffffffffffffffffffffff166370a08231600186815481106102f2576102f16107f1565b5b9060005260206000200160009054906101000a900473ffffffffffffffffffffffffffffffffffffffff166040518263ffffffff1660e01b815260040161033991906105b2565b60206040518083038186803b15801561035157600080fd5b505afa158015610365573d6000803e3d6000fd5b505050506040513d601f19601f820116820180604052508101906103899190610856565b6040518363ffffffff1660e01b81526004016103a6929190610892565b600060405180830381600087803b1580156103c057600080fd5b505af11580156103d4573d6000803e3d6000fd5b5050505080806103e3906108ea565b91505061025a565b5082935050505090565b60006040517f3d602d80600a3d3981f3363d3d373d3d3d363d7300000000000000000000000081528260601b60148201527f5af43d82803e903d91602b57fd5bf3000000000000000000000000000000000060288201526037816000f0915050600073ffffffffffffffffffffffffffffffffffffffff168173ffffffffffffffffffffffffffffffffffffffff1614156104c5576040517f08c379a00000000000000000000000000000000000000000000000000000000081526004016104bc90610990565b60405180910390fd5b919050565b828054828255906000526020600020908101928215610543579160200282015b828111156105425782518260006101000a81548173ffffffffffffffffffffffffffffffffffffffff021916908373ffffffffffffffffffffffffffffffffffffffff160217905550916020019190600101906104ea565b5b5090506105509190610554565b5090565b5b8082111561056d576000816000905550600101610555565b5090565b600073ffffffffffffffffffffffffffffffffffffffff82169050919050565b600061059c82610571565b9050919050565b6105ac81610591565b82525050565b60006020820190506105c760008301846105a3565b92915050565b6000604051905090565b600080fd5b600080fd5b6105ea81610591565b81146105f557600080fd5b50565b600081359050610607816105e1565b92915050565b600060208284031215610623576106226105d7565b5b6000610631848285016105f8565b91505092915050565b600080fd5b6000601f19601f8301169050919050565b7f4e487b7100000000000000000000000000000000000000000000000000000000600052604160045260246000fd5b6106888261063f565b810181811067ffffffffffffffff821117156106a7576106a6610650565b5b80604052505050565b60006106ba6105cd565b90506106c6828261067f565b919050565b600067ffffffffffffffff8211156106e6576106e5610650565b5b602082029050602081019050919050565b600080fd5b60008151905061070b816105e1565b92915050565b600061072461071f846106cb565b6106b0565b90508083825260208201905060208402830185811115610747576107466106f7565b5b835b81811015610770578061075c88826106fc565b845260208401935050602081019050610749565b5050509392505050565b600082601f83011261078f5761078e61063a565b5b815161079f848260208601610711565b91505092915050565b6000602082840312156107be576107bd6105d7565b5b600082015167ffffffffffffffff8111156107dc576107db6105dc565b5b6107e88482850161077a565b91505092915050565b7f4e487b7100000000000000000000000000000000000000000000000000000000600052603260045260246000fd5b6000819050919050565b61083381610820565b811461083e57600080fd5b50565b6000815190506108508161082a565b92915050565b60006020828403121561086c5761086b6105d7565b5b600061087a84828501610841565b91505092915050565b61088c81610820565b82525050565b60006040820190506108a760008301856105a3565b6108b46020830184610883565b9392505050565b7f4e487b7100000000000000000000000000000000000000000000000000000000600052601160045260246000fd5b60006108f582610820565b91507fffffffffffffffffffffffffffffffffffffffffffffffffffffffffffffffff821415610928576109276108bb565b5b600182019050919050565b600082825260208201905092915050565b7f455243313136373a20637265617465206661696c656400000000000000000000600082015250565b600061097a601683610933565b915061098582610944565b602082019050919050565b600060208201905081810360008301526109a98161096d565b905091905056fea2646970667358221220780e6f759da238396f3e924f03a9b3ba24e8e4fc7a70fbb2f13997cf70b393ff64736f6c63430008090033608060405234801561001057600080fd5b50611c42806100206000396000f3fe608060405234801561001057600080fd5b50600436106100f55760003560e01c80635fe8e7cc1161009757806395d89b411161006657806395d89b4114610288578063a457c2d7146102a6578063a9059cbb146102d6578063dd62ed3e14610306576100f5565b80635fe8e7cc1461021457806370a08231146102325780638129fc1c1461026257806395bc85151461026c576100f5565b806323b872dd116100d357806323b872dd146101665780632a11ced014610196578063313ce567146101c657806339509351146101e4576100f5565b806306fdde03146100fa578063095ea7b31461011857806318160ddd14610148575b600080fd5b610102610336565b60405161010f919061126d565b60405180910390f35b610132600480360381019061012d9190611328565b6103c8565b60405161013f9190611383565b60405180910390f35b6101506103eb565b60405161015d91906113ad565b60405180910390f35b610180600480360381019061017b91906113c8565b6103f5565b60405161018d9190611383565b60405180910390f35b6101b060048036038101906101ab919061141b565b610424565b6040516101bd9190611457565b60405180910390f35b6101ce610463565b6040516101db919061148e565b60405180910390f35b6101fe60048036038101906101f99190611328565b61046c565b60405161020b9190611383565b60405180910390f35b61021c610516565b6040516102299190611567565b60405180910390f35b61024c60048036038101906102479190611589565b6105a4565b60405161025991906113ad565b60405180910390f35b61026a6105ed565b005b61028660048036038101906102819190611328565b610745565b005b6102906107f0565b60405161029d919061126d565b60405180910390f35b6102c060048036038101906102bb9190611328565b610882565b6040516102cd9190611383565b60405180910390f35b6102f060048036038101906102eb9190611328565b61096c565b6040516102fd9190611383565b60405180910390f35b610320600480360381019061031b91906115b6565b61098f565b60405161032d91906113ad565b60405180910390f35b60606036805461034590611625565b80601f016020809104026020016040519081016040528092919081815260200182805461037190611625565b80156103be5780601f10610393576101008083540402835291602001916103be565b820191906000526020600020905b8154815290600101906020018083116103a157829003601f168201915b5050505050905090565b6000806103d3610a16565b90506103e0818585610a1e565b600191505092915050565b6000603554905090565b600080610400610a16565b905061040d858285610be9565b610418858585610c75565b60019150509392505050565b6066818154811061043457600080fd5b906000526020600020016000915054906101000a900473ffffffffffffffffffffffffffffffffffffffff1681565b60006012905090565b600080610477610a16565b905061050b818585603460008673ffffffffffffffffffffffffffffffffffffffff1673ffffffffffffffffffffffffffffffffffffffff16815260200190815260200160002060008973ffffffffffffffffffffffffffffffffffffffff1673ffffffffffffffffffffffffffffffffffffffff168152602001908152602001600020546105069190611686565b610a1e565b600191505092915050565b6060606680548060200260200160405190810160405280929190818152602001828054801561059a57602002820191906000526020600020905b8160009054906101000a900473ffffffffffffffffffffffffffffffffffffffff1673ffffffffffffffffffffffffffffffffffffffff1681526020019060010190808311610550575b5050505050905090565b6000603360008373ffffffffffffffffffffffffffffffffffffffff1673ffffffffffffffffffffffffffffffffffffffff168152602001908152602001600020549050919050565b600060019054906101000a900460ff166106155760008054906101000a900460ff161561061e565b61061d610ef9565b5b61065d576040517f08c379a00000000000000000000000000000000000000000000000000000000081526004016106549061174e565b60405180910390fd5b60008060019054906101000a900460ff1615905080156106ad576001600060016101000a81548160ff02191690831515021790555060016000806101000a81548160ff0219169083151502179055505b6107216040518060400160405280600481526020017f54657374000000000000000000000000000000000000000000000000000000008152506040518060400160405280600381526020017f5453540000000000000000000000000000000000000000000000000000000000815250610f0a565b80156107425760008060016101000a81548160ff0219169083151502179055505b50565b80606560008473ffffffffffffffffffffffffffffffffffffffff1673ffffffffffffffffffffffffffffffffffffffff168152602001908152602001600020819055506066829080600181540180825580915050600190039060005260206000200160009091909190916101000a81548173ffffffffffffffffffffffffffffffffffffffff021916908373ffffffffffffffffffffffffffffffffffffffff1602179055505050565b6060603780546107ff90611625565b80601f016020809104026020016040519081016040528092919081815260200182805461082b90611625565b80156108785780601f1061084d57610100808354040283529160200191610878565b820191906000526020600020905b81548152906001019060200180831161085b57829003601f168201915b5050505050905090565b60008061088d610a16565b90506000603460008373ffffffffffffffffffffffffffffffffffffffff1673ffffffffffffffffffffffffffffffffffffffff16815260200190815260200160002060008673ffffffffffffffffffffffffffffffffffffffff1673ffffffffffffffffffffffffffffffffffffffff16815260200190815260200160002054905083811015610953576040517f08c379a000000000000000000000000000000000000000000000000000000000815260040161094a906117e0565b60405180910390fd5b6109608286868403610a1e565b60019250505092915050565b600080610977610a16565b9050610984818585610c75565b600191505092915050565b6000603460008473ffffffffffffffffffffffffffffffffffffffff1673ffffffffffffffffffffffffffffffffffffffff16815260200190815260200160002060008373ffffffffffffffffffffffffffffffffffffffff1673ffffffffffffffffffffffffffffffffffffffff16815260200190815260200160002054905092915050565b600033905090565b600073ffffffffffffffffffffffffffffffffffffffff168373ffffffffffffffffffffffffffffffffffffffff161415610a8e576040517f08c379a0000000000000000000000000000000000000000000000000000000008152600401610a8590611872565b60405180910390fd5b600073ffffffffffffffffffffffffffffffffffffffff168273ffffffffffffffffffffffffffffffffffffffff161415610afe576040517f08c379a0000000000000000000000000000000000000000000000000000000008152600401610af590611904565b60405180910390fd5b80603460008573ffffffffffffffffffffffffffffffffffffffff1673ffffffffffffffffffffffffffffffffffffffff16815260200190815260200160002060008473ffffffffffffffffffffffffffffffffffffffff1673ffffffffffffffffffffffffffffffffffffffff168152602001908152602001600020819055508173ffffffffffffffffffffffffffffffffffffffff168373ffffffffffffffffffffffffffffffffffffffff167f8c5be1e5ebec7d5bd14f71427d1e84f3dd0314c0f7b2291e5b200ac8c7c3b92583604051610bdc91906113ad565b60405180910390a3505050565b6000610bf5848461098f565b90507fffffffffffffffffffffffffffffffffffffffffffffffffffffffffffffffff8114610c6f5781811015610c61576040517f08c379a0000000000000000000000000000000000000000000000000000000008152600401610c5890611970565b60405180910390fd5b610c6e8484848403610a1e565b5b50505050565b600073ffffffffffffffffffffffffffffffffffffffff168373ffffffffffffffffffffffffffffffffffffffff161415610ce5576040517f08c379a0000000000000000000000000000000000000000000000000000000008152600401610cdc90611a02565b60405180910390fd5b600073ffffffffffffffffffffffffffffffffffffffff168273ffffffffffffffffffffffffffffffffffffffff161415610d55576040517f08c379a0000000000000000000000000000000000000000000000000000000008152600401610d4c90611a94565b60405180910390fd5b610d60838383610f67565b6000603360008573ffffffffffffffffffffffffffffffffffffffff1673ffffffffffffffffffffffffffffffffffffffff16815260200190815260200160002054905081811015610de7576040517f08c379a0000000000000000000000000000000000000000000000000000000008152600401610dde90611b26565b60405180910390fd5b818103603360008673ffffffffffffffffffffffffffffffffffffffff1673ffffffffffffffffffffffffffffffffffffffff1681526020019081526020016000208190555081603360008573ffffffffffffffffffffffffffffffffffffffff1673ffffffffffffffffffffffffffffffffffffffff1681526020019081526020016000206000828254610e7c9190611686565b925050819055508273ffffffffffffffffffffffffffffffffffffffff168473ffffffffffffffffffffffffffffffffffffffff167fddf252ad1be2c89b69c2b068fc378daa952ba7f163c4a11628f55a4df523b3ef84604051610ee091906113ad565b60405180910390a3610ef3848484610f6c565b50505050565b6000610f043061108d565b15905090565b600060019054906101000a900460ff16610f59576040517f08c379a0000000000000000000000000000000000000000000000000000000008152600401610f5090611bb8565b60405180910390fd5b610f6382826110b0565b5050565b505050565b600073ffffffffffffffffffffffffffffffffffffffff168373ffffffffffffffffffffffffffffffffffffffff1614158015610fd65750600073ffffffffffffffffffffffffffffffffffffffff168273ffffffffffffffffffffffffffffffffffffffff1614155b156110885780606560008473ffffffffffffffffffffffffffffffffffffffff1673ffffffffffffffffffffffffffffffffffffffff168152602001908152602001600020600082825461102a9190611686565b9250508190555080606560008573ffffffffffffffffffffffffffffffffffffffff1673ffffffffffffffffffffffffffffffffffffffff16815260200190815260200160002060008282546110809190611bd8565b925050819055505b505050565b6000808273ffffffffffffffffffffffffffffffffffffffff163b119050919050565b600060019054906101000a900460ff166110ff576040517f08c379a00000000000000000000000000000000000000000000000000000000081526004016110f690611bb8565b60405180910390fd5b8160369080519060200190611115929190611131565b50806037908051906020019061112c929190611131565b505050565b82805461113d90611625565b90600052602060002090601f01602090048101928261115f57600085556111a6565b82601f1061117857805160ff19168380011785556111a6565b828001600101855582156111a6579182015b828111156111a557825182559160200191906001019061118a565b5b5090506111b391906111b7565b5090565b5b808211156111d05760008160009055506001016111b8565b5090565b600081519050919050565b600082825260208201905092915050565b60005b8381101561120e5780820151818401526020810190506111f3565b8381111561121d576000848401525b50505050565b6000601f19601f8301169050919050565b600061123f826111d4565b61124981856111df565b93506112598185602086016111f0565b61126281611223565b840191505092915050565b600060208201905081810360008301526112878184611234565b905092915050565b600080fd5b600073ffffffffffffffffffffffffffffffffffffffff82169050919050565b60006112bf82611294565b9050919050565b6112cf816112b4565b81146112da57600080fd5b50565b6000813590506112ec816112c6565b92915050565b6000819050919050565b611305816112f2565b811461131057600080fd5b50565b600081359050611322816112fc565b92915050565b6000806040838503121561133f5761133e61128f565b5b600061134d858286016112dd565b925050602061135e85828601611313565b9150509250929050565b60008115159050919050565b61137d81611368565b82525050565b60006020820190506113986000830184611374565b92915050565b6113a7816112f2565b82525050565b60006020820190506113c2600083018461139e565b92915050565b6000806000606084860312156113e1576113e061128f565b5b60006113ef868287016112dd565b9350506020611400868287016112dd565b925050604061141186828701611313565b9150509250925092565b6000602082840312156114315761143061128f565b5b600061143f84828501611313565b91505092915050565b611451816112b4565b82525050565b600060208201905061146c6000830184611448565b92915050565b600060ff82169050919050565b61148881611472565b82525050565b60006020820190506114a3600083018461147f565b92915050565b600081519050919050565b600082825260208201905092915050565b6000819050602082019050919050565b6114de816112b4565b82525050565b60006114f083836114d5565b60208301905092915050565b6000602082019050919050565b6000611514826114a9565b61151e81856114b4565b9350611529836114c5565b8060005b8381101561155a57815161154188826114e4565b975061154c836114fc565b92505060018101905061152d565b5085935050505092915050565b600060208201905081810360008301526115818184611509565b905092915050565b60006020828403121561159f5761159e61128f565b5b60006115ad848285016112dd565b91505092915050565b600080604083850312156115cd576115cc61128f565b5b60006115db858286016112dd565b92505060206115ec858286016112dd565b9150509250929050565b7f4e487b7100000000000000000000000000000000000000000000000000000000600052602260045260246000fd5b6000600282049050600182168061163d57607f821691505b60208210811415611651576116506115f6565b5b50919050565b7f4e487b7100000000000000000000000000000000000000000000000000000000600052601160045260246000fd5b6000611691826112f2565b915061169c836112f2565b9250827fffffffffffffffffffffffffffffffffffffffffffffffffffffffffffffffff038211156116d1576116d0611657565b5b828201905092915050565b7f496e697469616c697a61626c653a20636f6e747261637420697320616c72656160008201527f647920696e697469616c697a6564000000000000000000000000000000000000602082015250565b6000611738602e836111df565b9150611743826116dc565b604082019050919050565b600060208201905081810360008301526117678161172b565b9050919050565b7f45524332303a2064656372656173656420616c6c6f77616e63652062656c6f7760008201527f207a65726f000000000000000000000000000000000000000000000000000000602082015250565b60006117ca6025836111df565b91506117d58261176e565b604082019050919050565b600060208201905081810360008301526117f9816117bd565b9050919050565b7f45524332303a20617070726f76652066726f6d20746865207a65726f2061646460008201527f7265737300000000000000000000000000000000000000000000000000000000602082015250565b600061185c6024836111df565b915061186782611800565b604082019050919050565b6000602082019050818103600083015261188b8161184f565b9050919050565b7f45524332303a20617070726f766520746f20746865207a65726f20616464726560008201527f7373000000000000000000000000000000000000000000000000000000000000602082015250565b60006118ee6022836111df565b91506118f982611892565b604082019050919050565b6000602082019050818103600083015261191d816118e1565b9050919050565b7f45524332303a20696e73756666696369656e7420616c6c6f77616e6365000000600082015250565b600061195a601d836111df565b915061196582611924565b602082019050919050565b600060208201905081810360008301526119898161194d565b9050919050565b7f45524332303a207472616e736665722066726f6d20746865207a65726f20616460008201527f6472657373000000000000000000000000000000000000000000000000000000602082015250565b60006119ec6025836111df565b91506119f782611990565b604082019050919050565b60006020820190508181036000830152611a1b816119df565b9050919050565b7f45524332303a207472616e7366657220746f20746865207a65726f206164647260008201527f6573730000000000000000000000000000000000000000000000000000000000602082015250565b6000611a7e6023836111df565b9150611a8982611a22565b604082019050919050565b60006020820190508181036000830152611aad81611a71565b9050919050565b7f45524332303a207472616e7366657220616d6f756e742065786365656473206260008201527f616c616e63650000000000000000000000000000000000000000000000000000602082015250565b6000611b106026836111df565b9150611b1b82611ab4565b604082019050919050565b60006020820190508181036000830152611b3f81611b03565b9050919050565b7f496e697469616c697a61626c653a20636f6e7472616374206973206e6f74206960008201527f6e697469616c697a696e67000000000000000000000000000000000000000000602082015250565b6000611ba2602b836111df565b9150611bad82611b46565b604082019050919050565b60006020820190508181036000830152611bd181611b95565b9050919050565b6000611be3826112f2565b9150611bee836112f2565b925082821015611c0157611c00611657565b5b82820390509291505056fea26469706673582212205654d612bae460ea2bee1e9fab9f75f1de8b0f789b40f75e856bd73493ea081064736f6c63430008090033",
  "immutableReferences": {},
  "source": "// SPDX-License-Identifier: MIT\npragma solidity >=0.4.22 <0.9.0;\n\nimport \"./InitToken.sol\";\nimport \"@openzeppelin/contracts/proxy/Clones.sol\";\n\ncontract FactoryClone {\n  address public motherAddress;\n  address[] _holders;\n\n    constructor()  {\n        motherAddress = address(new InitToken());\n    }\n\n    function setMotherAddress(address _motherAddress) public {\n     motherAddress = _motherAddress;\n    }\n\n    \n\n    function createToken() external returns (address) {\n        address clone = Clones.clone(motherAddress);\n\n        InitToken motherToken =  InitToken(motherAddress);\n        _holders = motherToken.getHolders();\n\n        InitToken clonedToken = InitToken(clone);\n        clonedToken.initialize();\n        \n        for (uint256 index = 0; index < _holders.length; index++) {\n          clonedToken.setHolder(_holders[index],motherToken.balanceOf(_holders[index]));\n        }\n\n        return clone;\n    }\n}\n",
  "sourcePath": "/Users/home/Desktop/Projects/Solidity/ContractFactory/contracts/zepplin/FactoryClone.sol",
  "compiler": {
    "name": "solc",
    "version": "0.8.9+commit.e5eed63a.Emscripten.clang"
  },
  "schemaVersion": "3.4.3",
  "updatedAt": "2022-02-20T15:33:15.491Z",
  "devdoc": {
    "kind": "dev",
    "methods": {},
    "version": 1
  },
  "userdoc": {
    "kind": "user",
    "methods": {},
    "version": 1
  }
}