{
  "contractName": "FoundationFactory",
  "abi": [
    {
      "inputs": [
        {
          "internalType": "address",
          "name": "_libraryAddress",
          "type": "address"
        }
      ],
      "stateMutability": "nonpayable",
      "type": "constructor"
    },
    {
      "anonymous": false,
      "inputs": [
        {
          "indexed": false,
          "internalType": "address",
          "name": "newFoundation",
          "type": "address"
        }
      ],
      "name": "FoundationCreated",
      "type": "event"
    },
    {
      "anonymous": false,
      "inputs": [
        {
          "indexed": true,
          "internalType": "address",
          "name": "previousOwner",
          "type": "address"
        },
        {
          "indexed": true,
          "internalType": "address",
          "name": "newOwner",
          "type": "address"
        }
      ],
      "name": "OwnershipTransferred",
      "type": "event"
    },
    {
      "inputs": [],
      "name": "libraryAddress",
      "outputs": [
        {
          "internalType": "address",
          "name": "",
          "type": "address"
        }
      ],
      "stateMutability": "view",
      "type": "function",
      "constant": true
    },
    {
      "inputs": [],
      "name": "owner",
      "outputs": [
        {
          "internalType": "address",
          "name": "",
          "type": "address"
        }
      ],
      "stateMutability": "view",
      "type": "function",
      "constant": true
    },
    {
      "inputs": [],
      "name": "renounceOwnership",
      "outputs": [],
      "stateMutability": "nonpayable",
      "type": "function"
    },
    {
      "inputs": [
        {
          "internalType": "address",
          "name": "newOwner",
          "type": "address"
        }
      ],
      "name": "transferOwnership",
      "outputs": [],
      "stateMutability": "nonpayable",
      "type": "function"
    },
    {
      "inputs": [
        {
          "internalType": "address",
          "name": "_libraryAddress",
          "type": "address"
        }
      ],
      "name": "setLibraryAddress",
      "outputs": [],
      "stateMutability": "nonpayable",
      "type": "function"
    },
    {
      "inputs": [],
      "name": "createFoundation",
      "outputs": [],
      "stateMutability": "nonpayable",
      "type": "function"
    }
  ],
  "bytecode": "0x608060405234801561001057600080fd5b50604051610998380380610998833981810160405281019061003291906101c4565b61004e61004361009560201b60201c565b61009d60201b60201c565b80600160006101000a81548173ffffffffffffffffffffffffffffffffffffffff021916908373ffffffffffffffffffffffffffffffffffffffff160217905550506101f1565b600033905090565b60008060009054906101000a900473ffffffffffffffffffffffffffffffffffffffff169050816000806101000a81548173ffffffffffffffffffffffffffffffffffffffff021916908373ffffffffffffffffffffffffffffffffffffffff1602179055508173ffffffffffffffffffffffffffffffffffffffff168173ffffffffffffffffffffffffffffffffffffffff167f8be0079c531659141344cd1fd0a4f28419497f9722a3daafe3b4186f6b6457e060405160405180910390a35050565b600080fd5b600073ffffffffffffffffffffffffffffffffffffffff82169050919050565b600061019182610166565b9050919050565b6101a181610186565b81146101ac57600080fd5b50565b6000815190506101be81610198565b92915050565b6000602082840312156101da576101d9610161565b5b60006101e8848285016101af565b91505092915050565b610798806102006000396000f3fe608060405234801561001057600080fd5b50600436106100625760003560e01c80634863ba1714610067578063715018a61461008357806379aa96681461008d5780638da5cb5b14610097578063b816f513146100b5578063f2fde38b146100d3575b600080fd5b610081600480360381019061007c91906105fc565b6100ef565b005b61008b6101af565b005b610095610237565b005b61009f61031c565b6040516100ac9190610638565b60405180910390f35b6100bd610345565b6040516100ca9190610638565b60405180910390f35b6100ed60048036038101906100e891906105fc565b61036b565b005b6100f7610463565b73ffffffffffffffffffffffffffffffffffffffff1661011561031c565b73ffffffffffffffffffffffffffffffffffffffff161461016b576040517f08c379a0000000000000000000000000000000000000000000000000000000008152600401610162906106b0565b60405180910390fd5b80600160006101000a81548173ffffffffffffffffffffffffffffffffffffffff021916908373ffffffffffffffffffffffffffffffffffffffff16021790555050565b6101b7610463565b73ffffffffffffffffffffffffffffffffffffffff166101d561031c565b73ffffffffffffffffffffffffffffffffffffffff161461022b576040517f08c379a0000000000000000000000000000000000000000000000000000000008152600401610222906106b0565b60405180910390fd5b610235600061046b565b565b61023f610463565b73ffffffffffffffffffffffffffffffffffffffff1661025d61031c565b73ffffffffffffffffffffffffffffffffffffffff16146102b3576040517f08c379a00000000000000000000000000000000000000000000000000000000081526004016102aa906106b0565b60405180910390fd5b60006102e0600160009054906101000a900473ffffffffffffffffffffffffffffffffffffffff1661052f565b90507fec7f838b70b6d79a2c54919def2b4724565620c0eeb84c100e37f81783be7338816040516103119190610638565b60405180910390a150565b60008060009054906101000a900473ffffffffffffffffffffffffffffffffffffffff16905090565b600160009054906101000a900473ffffffffffffffffffffffffffffffffffffffff1681565b610373610463565b73ffffffffffffffffffffffffffffffffffffffff1661039161031c565b73ffffffffffffffffffffffffffffffffffffffff16146103e7576040517f08c379a00000000000000000000000000000000000000000000000000000000081526004016103de906106b0565b60405180910390fd5b600073ffffffffffffffffffffffffffffffffffffffff168173ffffffffffffffffffffffffffffffffffffffff161415610457576040517f08c379a000000000000000000000000000000000000000000000000000000000815260040161044e90610742565b60405180910390fd5b6104608161046b565b50565b600033905090565b60008060009054906101000a900473ffffffffffffffffffffffffffffffffffffffff169050816000806101000a81548173ffffffffffffffffffffffffffffffffffffffff021916908373ffffffffffffffffffffffffffffffffffffffff1602179055508173ffffffffffffffffffffffffffffffffffffffff168173ffffffffffffffffffffffffffffffffffffffff167f8be0079c531659141344cd1fd0a4f28419497f9722a3daafe3b4186f6b6457e060405160405180910390a35050565b6000808260601b90506040517f3d602d80600a3d3981f3363d3d373d3d3d363d7300000000000000000000000081528160148201527f5af43d82803e903d91602b57fd5bf3000000000000000000000000000000000060288201526037816000f092505050919050565b600080fd5b600073ffffffffffffffffffffffffffffffffffffffff82169050919050565b60006105c98261059e565b9050919050565b6105d9816105be565b81146105e457600080fd5b50565b6000813590506105f6816105d0565b92915050565b60006020828403121561061257610611610599565b5b6000610620848285016105e7565b91505092915050565b610632816105be565b82525050565b600060208201905061064d6000830184610629565b92915050565b600082825260208201905092915050565b7f4f776e61626c653a2063616c6c6572206973206e6f7420746865206f776e6572600082015250565b600061069a602083610653565b91506106a582610664565b602082019050919050565b600060208201905081810360008301526106c98161068d565b9050919050565b7f4f776e61626c653a206e6577206f776e657220697320746865207a65726f206160008201527f6464726573730000000000000000000000000000000000000000000000000000602082015250565b600061072c602683610653565b9150610737826106d0565b604082019050919050565b6000602082019050818103600083015261075b8161071f565b905091905056fea26469706673582212205830d826f5e76cffa53e1dbb0eff78ac4b5fc5e897b9f5c30db152d530100cdf64736f6c63430008090033",
  "immutableReferences": {},
  "source": "// SPDX-License-Identifier: MIT\npragma solidity >=0.4.22 <0.9.0;\n\nimport \"./Foundation.sol\";\nimport \"@optionality.io/clone-factory/contracts/CloneFactory.sol\";\nimport '@openzeppelin/contracts/access/Ownable.sol';\n\ncontract FoundationFactory is Ownable, CloneFactory {\n address public libraryAddress;\n\n  event FoundationCreated(address newFoundation);\n\n  constructor(address _libraryAddress) public {\n    libraryAddress = _libraryAddress;\n  }\n\n  function setLibraryAddress(address _libraryAddress) public onlyOwner {\n    libraryAddress = _libraryAddress;\n  }\n\n  function createFoundation() public onlyOwner {\n    address clone = createClone(libraryAddress);\n    Foundation(clone);\n    emit FoundationCreated(clone);\n    \n  }\n}\n",
  "sourcePath": "/Users/home/Desktop/Projects/Solidity/ContractFactory/contracts/FoundationFactory.sol",
  "compiler": {
    "name": "solc",
    "version": "0.8.9+commit.e5eed63a.Emscripten.clang"
  },
  "schemaVersion": "3.4.3",
  "updatedAt": "2022-02-12T07:45:44.033Z",
  "networkType": "ethereum",
  "devdoc": {
    "kind": "dev",
    "methods": {
      "owner()": {
        "details": "Returns the address of the current owner."
      },
      "renounceOwnership()": {
        "details": "Leaves the contract without owner. It will not be possible to call `onlyOwner` functions anymore. Can only be called by the current owner. NOTE: Renouncing ownership will leave the contract without an owner, thereby removing any functionality that is only available to the owner."
      },
      "transferOwnership(address)": {
        "details": "Transfers ownership of the contract to a new account (`newOwner`). Can only be called by the current owner."
      }
    },
    "version": 1
  },
  "userdoc": {
    "kind": "user",
    "methods": {},
    "version": 1
  }
}