{
  "contractName": "Foundation",
  "abi": [
    {
      "inputs": [
        {
          "internalType": "string",
          "name": "_name",
          "type": "string"
        }
      ],
      "stateMutability": "nonpayable",
      "type": "constructor"
    },
    {
      "inputs": [],
      "name": "_owner",
      "outputs": [
        {
          "internalType": "address",
          "name": "",
          "type": "address"
        }
      ],
      "stateMutability": "view",
      "type": "function",
      "constant": true
    },
    {
      "inputs": [],
      "name": "name",
      "outputs": [
        {
          "internalType": "string",
          "name": "",
          "type": "string"
        }
      ],
      "stateMutability": "view",
      "type": "function",
      "constant": true
    }
  ],
  "bytecode": "0x608060405234801561001057600080fd5b50604051610643380380610643833981810160405281019061003291906102b1565b8060009080519060200190610048929190610090565b5033600160006101000a81548173ffffffffffffffffffffffffffffffffffffffff021916908373ffffffffffffffffffffffffffffffffffffffff1602179055505061035b565b82805461009c90610329565b90600052602060002090601f0160209004810192826100be5760008555610105565b82601f106100d757805160ff1916838001178555610105565b82800160010185558215610105579182015b828111156101045782518255916020019190600101906100e9565b5b5090506101129190610116565b5090565b5b8082111561012f576000816000905550600101610117565b5090565b6000604051905090565b600080fd5b600080fd5b600080fd5b600080fd5b6000601f19601f8301169050919050565b7f4e487b7100000000000000000000000000000000000000000000000000000000600052604160045260246000fd5b61019a82610151565b810181811067ffffffffffffffff821117156101b9576101b8610162565b5b80604052505050565b60006101cc610133565b90506101d88282610191565b919050565b600067ffffffffffffffff8211156101f8576101f7610162565b5b61020182610151565b9050602081019050919050565b60005b8381101561022c578082015181840152602081019050610211565b8381111561023b576000848401525b50505050565b600061025461024f846101dd565b6101c2565b9050828152602081018484840111156102705761026f61014c565b5b61027b84828561020e565b509392505050565b600082601f83011261029857610297610147565b5b81516102a8848260208601610241565b91505092915050565b6000602082840312156102c7576102c661013d565b5b600082015167ffffffffffffffff8111156102e5576102e4610142565b5b6102f184828501610283565b91505092915050565b7f4e487b7100000000000000000000000000000000000000000000000000000000600052602260045260246000fd5b6000600282049050600182168061034157607f821691505b60208210811415610355576103546102fa565b5b50919050565b6102d98061036a6000396000f3fe608060405234801561001057600080fd5b50600436106100365760003560e01c806306fdde031461003b578063b2bdfa7b14610059575b600080fd5b610043610077565b60405161005091906101c4565b60405180910390f35b610061610105565b60405161006e9190610227565b60405180910390f35b6000805461008490610271565b80601f01602080910402602001604051908101604052809291908181526020018280546100b090610271565b80156100fd5780601f106100d2576101008083540402835291602001916100fd565b820191906000526020600020905b8154815290600101906020018083116100e057829003601f168201915b505050505081565b600160009054906101000a900473ffffffffffffffffffffffffffffffffffffffff1681565b600081519050919050565b600082825260208201905092915050565b60005b8381101561016557808201518184015260208101905061014a565b83811115610174576000848401525b50505050565b6000601f19601f8301169050919050565b60006101968261012b565b6101a08185610136565b93506101b0818560208601610147565b6101b98161017a565b840191505092915050565b600060208201905081810360008301526101de818461018b565b905092915050565b600073ffffffffffffffffffffffffffffffffffffffff82169050919050565b6000610211826101e6565b9050919050565b61022181610206565b82525050565b600060208201905061023c6000830184610218565b92915050565b7f4e487b7100000000000000000000000000000000000000000000000000000000600052602260045260246000fd5b6000600282049050600182168061028957607f821691505b6020821081141561029d5761029c610242565b5b5091905056fea26469706673582212200330b9a8a47a524e8da3e20da2a3017bcea47a565b98bfdc2bcf1df88e419dc364736f6c63430008090033",
  "immutableReferences": {},
  "source": "// SPDX-License-Identifier: MIT\npragma solidity >=0.4.22 <0.9.0;\n\ncontract Foundation {\n  string public name;\n    address public _owner;\n\n    constructor(\n        string memory _name\n    ) public {\n        name = _name;\n        _owner = msg.sender;\n    }\n}\n",
  "sourcePath": "/Users/home/Desktop/Projects/Solidity/ContractFactory/contracts/Foundation.sol",
  "compiler": {
    "name": "solc",
    "version": "0.8.9+commit.e5eed63a.Emscripten.clang"
  },
  "schemaVersion": "3.4.3",
  "updatedAt": "2022-02-12T07:35:59.662Z",
  "networkType": "ethereum",
  "devdoc": {
    "kind": "dev",
    "methods": {},
    "version": 1
  },
  "userdoc": {
    "kind": "user",
    "methods": {},
    "version": 1
  }
}