{
  "contractName": "TokenFactory",
  "abi": [
    {
      "inputs": [
        {
          "internalType": "address",
          "name": "_mother",
          "type": "address"
        }
      ],
      "stateMutability": "nonpayable",
      "type": "constructor"
    },
    {
      "anonymous": false,
      "inputs": [
        {
          "indexed": true,
          "internalType": "address",
          "name": "previousOwner",
          "type": "address"
        },
        {
          "indexed": true,
          "internalType": "address",
          "name": "newOwner",
          "type": "address"
        }
      ],
      "name": "OwnershipTransferred",
      "type": "event"
    },
    {
      "anonymous": false,
      "inputs": [
        {
          "indexed": false,
          "internalType": "address",
          "name": "newToken",
          "type": "address"
        }
      ],
      "name": "TokenCreated",
      "type": "event"
    },
    {
      "inputs": [],
      "name": "motherAddress",
      "outputs": [
        {
          "internalType": "address",
          "name": "",
          "type": "address"
        }
      ],
      "stateMutability": "view",
      "type": "function",
      "constant": true
    },
    {
      "inputs": [],
      "name": "owner",
      "outputs": [
        {
          "internalType": "address",
          "name": "",
          "type": "address"
        }
      ],
      "stateMutability": "view",
      "type": "function",
      "constant": true
    },
    {
      "inputs": [],
      "name": "renounceOwnership",
      "outputs": [],
      "stateMutability": "nonpayable",
      "type": "function"
    },
    {
      "inputs": [
        {
          "internalType": "address",
          "name": "newOwner",
          "type": "address"
        }
      ],
      "name": "transferOwnership",
      "outputs": [],
      "stateMutability": "nonpayable",
      "type": "function"
    },
    {
      "inputs": [
        {
          "internalType": "address",
          "name": "_motherAddress",
          "type": "address"
        }
      ],
      "name": "setMotherAddress",
      "outputs": [],
      "stateMutability": "nonpayable",
      "type": "function"
    },
    {
      "inputs": [
        {
          "internalType": "string",
          "name": "name_",
          "type": "string"
        },
        {
          "internalType": "string",
          "name": "symbol_",
          "type": "string"
        }
      ],
      "name": "cloneToken",
      "outputs": [],
      "stateMutability": "nonpayable",
      "type": "function"
    }
  ],
  "bytecode": "0x60806040523480156200001157600080fd5b5060405162001194380380620011948339818101604052810190620000379190620001d5565b620000576200004b6200009f60201b60201c565b620000a760201b60201c565b80600160006101000a81548173ffffffffffffffffffffffffffffffffffffffff021916908373ffffffffffffffffffffffffffffffffffffffff1602179055505062000207565b600033905090565b60008060009054906101000a900473ffffffffffffffffffffffffffffffffffffffff169050816000806101000a81548173ffffffffffffffffffffffffffffffffffffffff021916908373ffffffffffffffffffffffffffffffffffffffff1602179055508173ffffffffffffffffffffffffffffffffffffffff168173ffffffffffffffffffffffffffffffffffffffff167f8be0079c531659141344cd1fd0a4f28419497f9722a3daafe3b4186f6b6457e060405160405180910390a35050565b600080fd5b600073ffffffffffffffffffffffffffffffffffffffff82169050919050565b60006200019d8262000170565b9050919050565b620001af8162000190565b8114620001bb57600080fd5b50565b600081519050620001cf81620001a4565b92915050565b600060208284031215620001ee57620001ed6200016b565b5b6000620001fe84828501620001be565b91505092915050565b610f7d80620002176000396000f3fe608060405234801561001057600080fd5b50600436106100625760003560e01c806325a2475414610067578063715018a61461008557806375e40e4b1461008f5780637bda52bc146100ab5780638da5cb5b146100c7578063f2fde38b146100e5575b600080fd5b61006f610101565b60405161007c9190610964565b60405180910390f35b61008d610127565b005b6100a960048036038101906100a491906109f8565b6101af565b005b6100c560048036038101906100c09190610aa5565b610565565b005b6100cf610625565b6040516100dc9190610964565b60405180910390f35b6100ff60048036038101906100fa9190610aa5565b61064e565b005b600160009054906101000a900473ffffffffffffffffffffffffffffffffffffffff1681565b61012f610746565b73ffffffffffffffffffffffffffffffffffffffff1661014d610625565b73ffffffffffffffffffffffffffffffffffffffff16146101a3576040517f08c379a000000000000000000000000000000000000000000000000000000000815260040161019a90610b2f565b60405180910390fd5b6101ad600061074e565b565b6101b7610746565b73ffffffffffffffffffffffffffffffffffffffff166101d5610625565b73ffffffffffffffffffffffffffffffffffffffff161461022b576040517f08c379a000000000000000000000000000000000000000000000000000000000815260040161022290610b2f565b60405180910390fd5b6000610258600160009054906101000a900473ffffffffffffffffffffffffffffffffffffffff16610812565b90506000600160009054906101000a900473ffffffffffffffffffffffffffffffffffffffff1690508073ffffffffffffffffffffffffffffffffffffffff16635fe8e7cc6040518163ffffffff1660e01b815260040160006040518083038186803b1580156102c757600080fd5b505afa1580156102db573d6000803e3d6000fd5b505050506040513d6000823e3d601f19601f820116820180604052508101906103049190610cb3565b6002908051906020019061031992919061087c565b5060008290508073ffffffffffffffffffffffffffffffffffffffff16637029144c888888886040518563ffffffff1660e01b815260040161035e9493929190610d38565b600060405180830381600087803b15801561037857600080fd5b505af115801561038c573d6000803e3d6000fd5b5050505060005b600280549050811015610524578173ffffffffffffffffffffffffffffffffffffffff166395bc8515600283815481106103d0576103cf610d73565b5b9060005260206000200160009054906101000a900473ffffffffffffffffffffffffffffffffffffffff168573ffffffffffffffffffffffffffffffffffffffff166370a082316002868154811061042b5761042a610d73565b5b9060005260206000200160009054906101000a900473ffffffffffffffffffffffffffffffffffffffff166040518263ffffffff1660e01b81526004016104729190610964565b60206040518083038186803b15801561048a57600080fd5b505afa15801561049e573d6000803e3d6000fd5b505050506040513d601f19601f820116820180604052508101906104c29190610dd8565b6040518363ffffffff1660e01b81526004016104df929190610e14565b600060405180830381600087803b1580156104f957600080fd5b505af115801561050d573d6000803e3d6000fd5b50505050808061051c90610e6c565b915050610393565b507f2e2b3f61b70d2d131b2a807371103cc98d51adcaa5e9a8f9c32658ad8426e74e836040516105549190610964565b60405180910390a150505050505050565b61056d610746565b73ffffffffffffffffffffffffffffffffffffffff1661058b610625565b73ffffffffffffffffffffffffffffffffffffffff16146105e1576040517f08c379a00000000000000000000000000000000000000000000000000000000081526004016105d890610b2f565b60405180910390fd5b80600160006101000a81548173ffffffffffffffffffffffffffffffffffffffff021916908373ffffffffffffffffffffffffffffffffffffffff16021790555050565b60008060009054906101000a900473ffffffffffffffffffffffffffffffffffffffff16905090565b610656610746565b73ffffffffffffffffffffffffffffffffffffffff16610674610625565b73ffffffffffffffffffffffffffffffffffffffff16146106ca576040517f08c379a00000000000000000000000000000000000000000000000000000000081526004016106c190610b2f565b60405180910390fd5b600073ffffffffffffffffffffffffffffffffffffffff168173ffffffffffffffffffffffffffffffffffffffff16141561073a576040517f08c379a000000000000000000000000000000000000000000000000000000000815260040161073190610f27565b60405180910390fd5b6107438161074e565b50565b600033905090565b60008060009054906101000a900473ffffffffffffffffffffffffffffffffffffffff169050816000806101000a81548173ffffffffffffffffffffffffffffffffffffffff021916908373ffffffffffffffffffffffffffffffffffffffff1602179055508173ffffffffffffffffffffffffffffffffffffffff168173ffffffffffffffffffffffffffffffffffffffff167f8be0079c531659141344cd1fd0a4f28419497f9722a3daafe3b4186f6b6457e060405160405180910390a35050565b6000808260601b90506040517f3d602d80600a3d3981f3363d3d373d3d3d363d7300000000000000000000000081528160148201527f5af43d82803e903d91602b57fd5bf3000000000000000000000000000000000060288201526037816000f092505050919050565b8280548282559060005260206000209081019282156108f5579160200282015b828111156108f45782518260006101000a81548173ffffffffffffffffffffffffffffffffffffffff021916908373ffffffffffffffffffffffffffffffffffffffff1602179055509160200191906001019061089c565b5b5090506109029190610906565b5090565b5b8082111561091f576000816000905550600101610907565b5090565b600073ffffffffffffffffffffffffffffffffffffffff82169050919050565b600061094e82610923565b9050919050565b61095e81610943565b82525050565b60006020820190506109796000830184610955565b92915050565b6000604051905090565b600080fd5b600080fd5b600080fd5b600080fd5b600080fd5b60008083601f8401126109b8576109b7610993565b5b8235905067ffffffffffffffff8111156109d5576109d4610998565b5b6020830191508360018202830111156109f1576109f061099d565b5b9250929050565b60008060008060408587031215610a1257610a11610989565b5b600085013567ffffffffffffffff811115610a3057610a2f61098e565b5b610a3c878288016109a2565b9450945050602085013567ffffffffffffffff811115610a5f57610a5e61098e565b5b610a6b878288016109a2565b925092505092959194509250565b610a8281610943565b8114610a8d57600080fd5b50565b600081359050610a9f81610a79565b92915050565b600060208284031215610abb57610aba610989565b5b6000610ac984828501610a90565b91505092915050565b600082825260208201905092915050565b7f4f776e61626c653a2063616c6c6572206973206e6f7420746865206f776e6572600082015250565b6000610b19602083610ad2565b9150610b2482610ae3565b602082019050919050565b60006020820190508181036000830152610b4881610b0c565b9050919050565b6000601f19601f8301169050919050565b7f4e487b7100000000000000000000000000000000000000000000000000000000600052604160045260246000fd5b610b9882610b4f565b810181811067ffffffffffffffff82111715610bb757610bb6610b60565b5b80604052505050565b6000610bca61097f565b9050610bd68282610b8f565b919050565b600067ffffffffffffffff821115610bf657610bf5610b60565b5b602082029050602081019050919050565b600081519050610c1681610a79565b92915050565b6000610c2f610c2a84610bdb565b610bc0565b90508083825260208201905060208402830185811115610c5257610c5161099d565b5b835b81811015610c7b5780610c678882610c07565b845260208401935050602081019050610c54565b5050509392505050565b600082601f830112610c9a57610c99610993565b5b8151610caa848260208601610c1c565b91505092915050565b600060208284031215610cc957610cc8610989565b5b600082015167ffffffffffffffff811115610ce757610ce661098e565b5b610cf384828501610c85565b91505092915050565b82818337600083830152505050565b6000610d178385610ad2565b9350610d24838584610cfc565b610d2d83610b4f565b840190509392505050565b60006040820190508181036000830152610d53818688610d0b565b90508181036020830152610d68818486610d0b565b905095945050505050565b7f4e487b7100000000000000000000000000000000000000000000000000000000600052603260045260246000fd5b6000819050919050565b610db581610da2565b8114610dc057600080fd5b50565b600081519050610dd281610dac565b92915050565b600060208284031215610dee57610ded610989565b5b6000610dfc84828501610dc3565b91505092915050565b610e0e81610da2565b82525050565b6000604082019050610e296000830185610955565b610e366020830184610e05565b9392505050565b7f4e487b7100000000000000000000000000000000000000000000000000000000600052601160045260246000fd5b6000610e7782610da2565b91507fffffffffffffffffffffffffffffffffffffffffffffffffffffffffffffffff821415610eaa57610ea9610e3d565b5b600182019050919050565b7f4f776e61626c653a206e6577206f776e657220697320746865207a65726f206160008201527f6464726573730000000000000000000000000000000000000000000000000000602082015250565b6000610f11602683610ad2565b9150610f1c82610eb5565b604082019050919050565b60006020820190508181036000830152610f4081610f04565b905091905056fea2646970667358221220b16368ce49025f20076d55554ffab2bf43a51088a3aa392829622bae065ee70264736f6c63430008090033",
  "immutableReferences": {},
  "source": "// SPDX-License-Identifier: MIT\npragma solidity >=0.4.22 <0.9.0;\n\nimport \"./TokenTest.sol\";\nimport \"@optionality.io/clone-factory/contracts/CloneFactory.sol\";\nimport '@openzeppelin/contracts/access/Ownable.sol';\n\n\ncontract TokenFactory is Ownable, CloneFactory {\n  address public motherAddress;\n  address[] _holders;\n \n\n  event TokenCreated(address newToken);\n\n  constructor(address _mother)  {\n    motherAddress = _mother;\n  }\n\n  function setMotherAddress(address _motherAddress) public onlyOwner {\n    motherAddress = _motherAddress;\n  }\n\n  function cloneToken(string calldata name_, string calldata symbol_) public onlyOwner {\n    address clone = createClone(motherAddress);\n\n    TokenTest motherToken = TokenTest(motherAddress);\n    _holders = motherToken.getHolders();  \n    \n    TokenTest clonedToken = TokenTest(clone);\n    clonedToken.init(name_, symbol_);\n    \n    \n    for (uint256 index = 0; index < _holders.length; index++) {\n      clonedToken.setHolder(_holders[index],motherToken.balanceOf(_holders[index]));\n    }\n    emit TokenCreated(clone);\n    \n  }\n}\n",
  "sourcePath": "/Users/home/Desktop/Projects/Solidity/ContractFactory/contracts/TokenFactory.sol",
  "compiler": {
    "name": "solc",
    "version": "0.8.9+commit.e5eed63a.Emscripten.clang"
  },
  "schemaVersion": "3.4.3",
  "updatedAt": "2022-02-20T16:13:55.793Z",
  "networkType": "ethereum",
  "devdoc": {
    "kind": "dev",
    "methods": {
      "owner()": {
        "details": "Returns the address of the current owner."
      },
      "renounceOwnership()": {
        "details": "Leaves the contract without owner. It will not be possible to call `onlyOwner` functions anymore. Can only be called by the current owner. NOTE: Renouncing ownership will leave the contract without an owner, thereby removing any functionality that is only available to the owner."
      },
      "transferOwnership(address)": {
        "details": "Transfers ownership of the contract to a new account (`newOwner`). Can only be called by the current owner."
      }
    },
    "version": 1
  },
  "userdoc": {
    "kind": "user",
    "methods": {},
    "version": 1
  }
}