{
  "contractName": "TokenTest",
  "abi": [
    {
      "inputs": [],
      "stateMutability": "nonpayable",
      "type": "constructor"
    },
    {
      "anonymous": false,
      "inputs": [
        {
          "indexed": true,
          "internalType": "address",
          "name": "owner",
          "type": "address"
        },
        {
          "indexed": true,
          "internalType": "address",
          "name": "spender",
          "type": "address"
        },
        {
          "indexed": false,
          "internalType": "uint256",
          "name": "value",
          "type": "uint256"
        }
      ],
      "name": "Approval",
      "type": "event"
    },
    {
      "anonymous": false,
      "inputs": [
        {
          "indexed": true,
          "internalType": "address",
          "name": "from",
          "type": "address"
        },
        {
          "indexed": true,
          "internalType": "address",
          "name": "to",
          "type": "address"
        },
        {
          "indexed": false,
          "internalType": "uint256",
          "name": "value",
          "type": "uint256"
        }
      ],
      "name": "Transfer",
      "type": "event"
    },
    {
      "inputs": [],
      "name": "name",
      "outputs": [
        {
          "internalType": "string",
          "name": "",
          "type": "string"
        }
      ],
      "stateMutability": "view",
      "type": "function",
      "constant": true
    },
    {
      "inputs": [],
      "name": "symbol",
      "outputs": [
        {
          "internalType": "string",
          "name": "",
          "type": "string"
        }
      ],
      "stateMutability": "view",
      "type": "function",
      "constant": true
    },
    {
      "inputs": [],
      "name": "decimals",
      "outputs": [
        {
          "internalType": "uint8",
          "name": "",
          "type": "uint8"
        }
      ],
      "stateMutability": "view",
      "type": "function",
      "constant": true
    },
    {
      "inputs": [],
      "name": "totalSupply",
      "outputs": [
        {
          "internalType": "uint256",
          "name": "",
          "type": "uint256"
        }
      ],
      "stateMutability": "view",
      "type": "function",
      "constant": true
    },
    {
      "inputs": [
        {
          "internalType": "address",
          "name": "account",
          "type": "address"
        }
      ],
      "name": "balanceOf",
      "outputs": [
        {
          "internalType": "uint256",
          "name": "",
          "type": "uint256"
        }
      ],
      "stateMutability": "view",
      "type": "function",
      "constant": true
    },
    {
      "inputs": [
        {
          "internalType": "address",
          "name": "to",
          "type": "address"
        },
        {
          "internalType": "uint256",
          "name": "amount",
          "type": "uint256"
        }
      ],
      "name": "transfer",
      "outputs": [
        {
          "internalType": "bool",
          "name": "",
          "type": "bool"
        }
      ],
      "stateMutability": "nonpayable",
      "type": "function"
    },
    {
      "inputs": [
        {
          "internalType": "address",
          "name": "owner",
          "type": "address"
        },
        {
          "internalType": "address",
          "name": "spender",
          "type": "address"
        }
      ],
      "name": "allowance",
      "outputs": [
        {
          "internalType": "uint256",
          "name": "",
          "type": "uint256"
        }
      ],
      "stateMutability": "view",
      "type": "function",
      "constant": true
    },
    {
      "inputs": [
        {
          "internalType": "address",
          "name": "spender",
          "type": "address"
        },
        {
          "internalType": "uint256",
          "name": "amount",
          "type": "uint256"
        }
      ],
      "name": "approve",
      "outputs": [
        {
          "internalType": "bool",
          "name": "",
          "type": "bool"
        }
      ],
      "stateMutability": "nonpayable",
      "type": "function"
    },
    {
      "inputs": [
        {
          "internalType": "address",
          "name": "from",
          "type": "address"
        },
        {
          "internalType": "address",
          "name": "to",
          "type": "address"
        },
        {
          "internalType": "uint256",
          "name": "amount",
          "type": "uint256"
        }
      ],
      "name": "transferFrom",
      "outputs": [
        {
          "internalType": "bool",
          "name": "",
          "type": "bool"
        }
      ],
      "stateMutability": "nonpayable",
      "type": "function"
    },
    {
      "inputs": [
        {
          "internalType": "address",
          "name": "spender",
          "type": "address"
        },
        {
          "internalType": "uint256",
          "name": "addedValue",
          "type": "uint256"
        }
      ],
      "name": "increaseAllowance",
      "outputs": [
        {
          "internalType": "bool",
          "name": "",
          "type": "bool"
        }
      ],
      "stateMutability": "nonpayable",
      "type": "function"
    },
    {
      "inputs": [
        {
          "internalType": "address",
          "name": "spender",
          "type": "address"
        },
        {
          "internalType": "uint256",
          "name": "subtractedValue",
          "type": "uint256"
        }
      ],
      "name": "decreaseAllowance",
      "outputs": [
        {
          "internalType": "bool",
          "name": "",
          "type": "bool"
        }
      ],
      "stateMutability": "nonpayable",
      "type": "function"
    },
    {
      "inputs": [],
      "name": "getHolders",
      "outputs": [
        {
          "internalType": "address[]",
          "name": "",
          "type": "address[]"
        }
      ],
      "stateMutability": "view",
      "type": "function",
      "constant": true
    },
    {
      "inputs": [
        {
          "internalType": "address",
          "name": "holder",
          "type": "address"
        },
        {
          "internalType": "uint256",
          "name": "balance",
          "type": "uint256"
        }
      ],
      "name": "setHolder",
      "outputs": [],
      "stateMutability": "nonpayable",
      "type": "function"
    },
    {
      "inputs": [],
      "name": "getHolderCount",
      "outputs": [
        {
          "internalType": "uint256",
          "name": "",
          "type": "uint256"
        }
      ],
      "stateMutability": "view",
      "type": "function",
      "constant": true
    },
    {
      "inputs": [
        {
          "internalType": "string",
          "name": "name_",
          "type": "string"
        },
        {
          "internalType": "string",
          "name": "symbol_",
          "type": "string"
        }
      ],
      "name": "init",
      "outputs": [],
      "stateMutability": "nonpayable",
      "type": "function"
    }
  ],
  "bytecode": "0x60806040523480156200001157600080fd5b506040518060400160405280601281526020017f5465737420466163746f727920546f6b656e0000000000000000000000000000815250600490805190602001906200005f929190620002fd565b506040518060400160405280600381526020017f545354000000000000000000000000000000000000000000000000000000000081525060059080519060200190620000ad929190620002fd565b50620000f033620000c3620000f660201b60201c565b60ff16600a620000d491906200053a565b620f4240620000e491906200058b565b620000ff60201b60201c565b6200075f565b60006012905090565b600073ffffffffffffffffffffffffffffffffffffffff168273ffffffffffffffffffffffffffffffffffffffff16141562000172576040517f08c379a000000000000000000000000000000000000000000000000000000000815260040162000169906200064d565b60405180910390fd5b80600360008282546200018691906200066f565b92505081905550806000808473ffffffffffffffffffffffffffffffffffffffff1673ffffffffffffffffffffffffffffffffffffffff1681526020019081526020016000206000828254620001dd91906200066f565b925050819055508173ffffffffffffffffffffffffffffffffffffffff16600073ffffffffffffffffffffffffffffffffffffffff167fddf252ad1be2c89b69c2b068fc378daa952ba7f163c4a11628f55a4df523b3ef83604051620002449190620006dd565b60405180910390a36200025d826200026160201b60201c565b5050565b600073ffffffffffffffffffffffffffffffffffffffff168173ffffffffffffffffffffffffffffffffffffffff1614620002fa576001819080600181540180825580915050600190039060005260206000200160009091909190916101000a81548173ffffffffffffffffffffffffffffffffffffffff021916908373ffffffffffffffffffffffffffffffffffffffff1602179055505b50565b8280546200030b9062000729565b90600052602060002090601f0160209004810192826200032f57600085556200037b565b82601f106200034a57805160ff19168380011785556200037b565b828001600101855582156200037b579182015b828111156200037a5782518255916020019190600101906200035d565b5b5090506200038a91906200038e565b5090565b5b80821115620003a95760008160009055506001016200038f565b5090565b7f4e487b7100000000000000000000000000000000000000000000000000000000600052601160045260246000fd5b60008160011c9050919050565b6000808291508390505b60018511156200043b57808604811115620004135762000412620003ad565b5b6001851615620004235780820291505b80810290506200043385620003dc565b9450620003f3565b94509492505050565b60008262000456576001905062000529565b8162000466576000905062000529565b81600181146200047f57600281146200048a57620004c0565b600191505062000529565b60ff8411156200049f576200049e620003ad565b5b8360020a915084821115620004b957620004b8620003ad565b5b5062000529565b5060208310610133831016604e8410600b8410161715620004fa5782820a905083811115620004f457620004f3620003ad565b5b62000529565b620005098484846001620003e9565b92509050818404811115620005235762000522620003ad565b5b81810290505b9392505050565b6000819050919050565b6000620005478262000530565b9150620005548362000530565b9250620005837fffffffffffffffffffffffffffffffffffffffffffffffffffffffffffffffff848462000444565b905092915050565b6000620005988262000530565b9150620005a58362000530565b9250817fffffffffffffffffffffffffffffffffffffffffffffffffffffffffffffffff0483118215151615620005e157620005e0620003ad565b5b828202905092915050565b600082825260208201905092915050565b7f45524332303a206d696e7420746f20746865207a65726f206164647265737300600082015250565b600062000635601f83620005ec565b91506200064282620005fd565b602082019050919050565b60006020820190508181036000830152620006688162000626565b9050919050565b60006200067c8262000530565b9150620006898362000530565b9250827fffffffffffffffffffffffffffffffffffffffffffffffffffffffffffffffff03821115620006c157620006c0620003ad565b5b828201905092915050565b620006d78162000530565b82525050565b6000602082019050620006f46000830184620006cc565b92915050565b7f4e487b7100000000000000000000000000000000000000000000000000000000600052602260045260246000fd5b600060028204905060018216806200074257607f821691505b60208210811415620007595762000758620006fa565b5b50919050565b611948806200076f6000396000f3fe608060405234801561001057600080fd5b50600436106100f55760003560e01c80637029144c1161009757806395d89b411161006657806395d89b4114610288578063a457c2d7146102a6578063a9059cbb146102d6578063dd62ed3e14610306576100f5565b80637029144c1461020257806370a082311461021e5780637136982b1461024e57806395bc85151461026c576100f5565b806323b872dd116100d357806323b872dd14610166578063313ce5671461019657806339509351146101b45780635fe8e7cc146101e4576100f5565b806306fdde03146100fa578063095ea7b31461011857806318160ddd14610148575b600080fd5b610102610336565b60405161010f9190610f66565b60405180910390f35b610132600480360381019061012d9190611030565b6103c8565b60405161013f919061108b565b60405180910390f35b6101506103eb565b60405161015d91906110b5565b60405180910390f35b610180600480360381019061017b91906110d0565b6103f5565b60405161018d919061108b565b60405180910390f35b61019e610424565b6040516101ab919061113f565b60405180910390f35b6101ce60048036038101906101c99190611030565b61042d565b6040516101db919061108b565b60405180910390f35b6101ec6104d7565b6040516101f99190611218565b60405180910390f35b61021c6004803603810190610217919061136f565b610565565b005b610238600480360381019061023391906113e7565b610597565b60405161024591906110b5565b60405180910390f35b6102566105df565b60405161026391906110b5565b60405180910390f35b61028660048036038101906102819190611030565b6105ec565b005b610290610696565b60405161029d9190610f66565b60405180910390f35b6102c060048036038101906102bb9190611030565b610728565b6040516102cd919061108b565b60405180910390f35b6102f060048036038101906102eb9190611030565b610812565b6040516102fd919061108b565b60405180910390f35b610320600480360381019061031b9190611414565b610835565b60405161032d91906110b5565b60405180910390f35b60606004805461034590611483565b80601f016020809104026020016040519081016040528092919081815260200182805461037190611483565b80156103be5780601f10610393576101008083540402835291602001916103be565b820191906000526020600020905b8154815290600101906020018083116103a157829003601f168201915b5050505050905090565b6000806103d36108bc565b90506103e08185856108c4565b600191505092915050565b6000600354905090565b6000806104006108bc565b905061040d858285610a8f565b610418858585610b1b565b60019150509392505050565b60006012905090565b6000806104386108bc565b90506104cc818585600260008673ffffffffffffffffffffffffffffffffffffffff1673ffffffffffffffffffffffffffffffffffffffff16815260200190815260200160002060008973ffffffffffffffffffffffffffffffffffffffff1673ffffffffffffffffffffffffffffffffffffffff168152602001908152602001600020546104c791906114e4565b6108c4565b600191505092915050565b6060600180548060200260200160405190810160405280929190818152602001828054801561055b57602002820191906000526020600020905b8160009054906101000a900473ffffffffffffffffffffffffffffffffffffffff1673ffffffffffffffffffffffffffffffffffffffff1681526020019060010190808311610511575b5050505050905090565b816004908051906020019061057b929190610e2a565b508060059080519060200190610592929190610e2a565b505050565b60008060008373ffffffffffffffffffffffffffffffffffffffff1673ffffffffffffffffffffffffffffffffffffffff168152602001908152602001600020549050919050565b6000600180549050905090565b806000808473ffffffffffffffffffffffffffffffffffffffff1673ffffffffffffffffffffffffffffffffffffffff168152602001908152602001600020819055506001829080600181540180825580915050600190039060005260206000200160009091909190916101000a81548173ffffffffffffffffffffffffffffffffffffffff021916908373ffffffffffffffffffffffffffffffffffffffff1602179055505050565b6060600580546106a590611483565b80601f01602080910402602001604051908101604052809291908181526020018280546106d190611483565b801561071e5780601f106106f35761010080835404028352916020019161071e565b820191906000526020600020905b81548152906001019060200180831161070157829003601f168201915b5050505050905090565b6000806107336108bc565b90506000600260008373ffffffffffffffffffffffffffffffffffffffff1673ffffffffffffffffffffffffffffffffffffffff16815260200190815260200160002060008673ffffffffffffffffffffffffffffffffffffffff1673ffffffffffffffffffffffffffffffffffffffff168152602001908152602001600020549050838110156107f9576040517f08c379a00000000000000000000000000000000000000000000000000000000081526004016107f0906115ac565b60405180910390fd5b61080682868684036108c4565b60019250505092915050565b60008061081d6108bc565b905061082a818585610b1b565b600191505092915050565b6000600260008473ffffffffffffffffffffffffffffffffffffffff1673ffffffffffffffffffffffffffffffffffffffff16815260200190815260200160002060008373ffffffffffffffffffffffffffffffffffffffff1673ffffffffffffffffffffffffffffffffffffffff16815260200190815260200160002054905092915050565b600033905090565b600073ffffffffffffffffffffffffffffffffffffffff168373ffffffffffffffffffffffffffffffffffffffff161415610934576040517f08c379a000000000000000000000000000000000000000000000000000000000815260040161092b9061163e565b60405180910390fd5b600073ffffffffffffffffffffffffffffffffffffffff168273ffffffffffffffffffffffffffffffffffffffff1614156109a4576040517f08c379a000000000000000000000000000000000000000000000000000000000815260040161099b906116d0565b60405180910390fd5b80600260008573ffffffffffffffffffffffffffffffffffffffff1673ffffffffffffffffffffffffffffffffffffffff16815260200190815260200160002060008473ffffffffffffffffffffffffffffffffffffffff1673ffffffffffffffffffffffffffffffffffffffff168152602001908152602001600020819055508173ffffffffffffffffffffffffffffffffffffffff168373ffffffffffffffffffffffffffffffffffffffff167f8c5be1e5ebec7d5bd14f71427d1e84f3dd0314c0f7b2291e5b200ac8c7c3b92583604051610a8291906110b5565b60405180910390a3505050565b6000610a9b8484610835565b90507fffffffffffffffffffffffffffffffffffffffffffffffffffffffffffffffff8114610b155781811015610b07576040517f08c379a0000000000000000000000000000000000000000000000000000000008152600401610afe9061173c565b60405180910390fd5b610b1484848484036108c4565b5b50505050565b600073ffffffffffffffffffffffffffffffffffffffff168373ffffffffffffffffffffffffffffffffffffffff161415610b8b576040517f08c379a0000000000000000000000000000000000000000000000000000000008152600401610b82906117ce565b60405180910390fd5b600073ffffffffffffffffffffffffffffffffffffffff168273ffffffffffffffffffffffffffffffffffffffff161415610bfb576040517f08c379a0000000000000000000000000000000000000000000000000000000008152600401610bf290611860565b60405180910390fd5b60008060008573ffffffffffffffffffffffffffffffffffffffff1673ffffffffffffffffffffffffffffffffffffffff16815260200190815260200160002054905081811015610c81576040517f08c379a0000000000000000000000000000000000000000000000000000000008152600401610c78906118f2565b60405180910390fd5b8181036000808673ffffffffffffffffffffffffffffffffffffffff1673ffffffffffffffffffffffffffffffffffffffff16815260200190815260200160002081905550816000808573ffffffffffffffffffffffffffffffffffffffff1673ffffffffffffffffffffffffffffffffffffffff1681526020019081526020016000206000828254610d1491906114e4565b925050819055508273ffffffffffffffffffffffffffffffffffffffff168473ffffffffffffffffffffffffffffffffffffffff167fddf252ad1be2c89b69c2b068fc378daa952ba7f163c4a11628f55a4df523b3ef84604051610d7891906110b5565b60405180910390a3610d8983610d8f565b50505050565b600073ffffffffffffffffffffffffffffffffffffffff168173ffffffffffffffffffffffffffffffffffffffff1614610e27576001819080600181540180825580915050600190039060005260206000200160009091909190916101000a81548173ffffffffffffffffffffffffffffffffffffffff021916908373ffffffffffffffffffffffffffffffffffffffff1602179055505b50565b828054610e3690611483565b90600052602060002090601f016020900481019282610e585760008555610e9f565b82601f10610e7157805160ff1916838001178555610e9f565b82800160010185558215610e9f579182015b82811115610e9e578251825591602001919060010190610e83565b5b509050610eac9190610eb0565b5090565b5b80821115610ec9576000816000905550600101610eb1565b5090565b600081519050919050565b600082825260208201905092915050565b60005b83811015610f07578082015181840152602081019050610eec565b83811115610f16576000848401525b50505050565b6000601f19601f8301169050919050565b6000610f3882610ecd565b610f428185610ed8565b9350610f52818560208601610ee9565b610f5b81610f1c565b840191505092915050565b60006020820190508181036000830152610f808184610f2d565b905092915050565b6000604051905090565b600080fd5b600080fd5b600073ffffffffffffffffffffffffffffffffffffffff82169050919050565b6000610fc782610f9c565b9050919050565b610fd781610fbc565b8114610fe257600080fd5b50565b600081359050610ff481610fce565b92915050565b6000819050919050565b61100d81610ffa565b811461101857600080fd5b50565b60008135905061102a81611004565b92915050565b6000806040838503121561104757611046610f92565b5b600061105585828601610fe5565b92505060206110668582860161101b565b9150509250929050565b60008115159050919050565b61108581611070565b82525050565b60006020820190506110a0600083018461107c565b92915050565b6110af81610ffa565b82525050565b60006020820190506110ca60008301846110a6565b92915050565b6000806000606084860312156110e9576110e8610f92565b5b60006110f786828701610fe5565b935050602061110886828701610fe5565b92505060406111198682870161101b565b9150509250925092565b600060ff82169050919050565b61113981611123565b82525050565b60006020820190506111546000830184611130565b92915050565b600081519050919050565b600082825260208201905092915050565b6000819050602082019050919050565b61118f81610fbc565b82525050565b60006111a18383611186565b60208301905092915050565b6000602082019050919050565b60006111c58261115a565b6111cf8185611165565b93506111da83611176565b8060005b8381101561120b5781516111f28882611195565b97506111fd836111ad565b9250506001810190506111de565b5085935050505092915050565b6000602082019050818103600083015261123281846111ba565b905092915050565b600080fd5b600080fd5b7f4e487b7100000000000000000000000000000000000000000000000000000000600052604160045260246000fd5b61127c82610f1c565b810181811067ffffffffffffffff8211171561129b5761129a611244565b5b80604052505050565b60006112ae610f88565b90506112ba8282611273565b919050565b600067ffffffffffffffff8211156112da576112d9611244565b5b6112e382610f1c565b9050602081019050919050565b82818337600083830152505050565b600061131261130d846112bf565b6112a4565b90508281526020810184848401111561132e5761132d61123f565b5b6113398482856112f0565b509392505050565b600082601f8301126113565761135561123a565b5b81356113668482602086016112ff565b91505092915050565b6000806040838503121561138657611385610f92565b5b600083013567ffffffffffffffff8111156113a4576113a3610f97565b5b6113b085828601611341565b925050602083013567ffffffffffffffff8111156113d1576113d0610f97565b5b6113dd85828601611341565b9150509250929050565b6000602082840312156113fd576113fc610f92565b5b600061140b84828501610fe5565b91505092915050565b6000806040838503121561142b5761142a610f92565b5b600061143985828601610fe5565b925050602061144a85828601610fe5565b9150509250929050565b7f4e487b7100000000000000000000000000000000000000000000000000000000600052602260045260246000fd5b6000600282049050600182168061149b57607f821691505b602082108114156114af576114ae611454565b5b50919050565b7f4e487b7100000000000000000000000000000000000000000000000000000000600052601160045260246000fd5b60006114ef82610ffa565b91506114fa83610ffa565b9250827fffffffffffffffffffffffffffffffffffffffffffffffffffffffffffffffff0382111561152f5761152e6114b5565b5b828201905092915050565b7f45524332303a2064656372656173656420616c6c6f77616e63652062656c6f7760008201527f207a65726f000000000000000000000000000000000000000000000000000000602082015250565b6000611596602583610ed8565b91506115a18261153a565b604082019050919050565b600060208201905081810360008301526115c581611589565b9050919050565b7f45524332303a20617070726f76652066726f6d20746865207a65726f2061646460008201527f7265737300000000000000000000000000000000000000000000000000000000602082015250565b6000611628602483610ed8565b9150611633826115cc565b604082019050919050565b600060208201905081810360008301526116578161161b565b9050919050565b7f45524332303a20617070726f766520746f20746865207a65726f20616464726560008201527f7373000000000000000000000000000000000000000000000000000000000000602082015250565b60006116ba602283610ed8565b91506116c58261165e565b604082019050919050565b600060208201905081810360008301526116e9816116ad565b9050919050565b7f45524332303a20696e73756666696369656e7420616c6c6f77616e6365000000600082015250565b6000611726601d83610ed8565b9150611731826116f0565b602082019050919050565b6000602082019050818103600083015261175581611719565b9050919050565b7f45524332303a207472616e736665722066726f6d20746865207a65726f20616460008201527f6472657373000000000000000000000000000000000000000000000000000000602082015250565b60006117b8602583610ed8565b91506117c38261175c565b604082019050919050565b600060208201905081810360008301526117e7816117ab565b9050919050565b7f45524332303a207472616e7366657220746f20746865207a65726f206164647260008201527f6573730000000000000000000000000000000000000000000000000000000000602082015250565b600061184a602383610ed8565b9150611855826117ee565b604082019050919050565b600060208201905081810360008301526118798161183d565b9050919050565b7f45524332303a207472616e7366657220616d6f756e742065786365656473206260008201527f616c616e63650000000000000000000000000000000000000000000000000000602082015250565b60006118dc602683610ed8565b91506118e782611880565b604082019050919050565b6000602082019050818103600083015261190b816118cf565b905091905056fea2646970667358221220c4e43fd6c90bac910722adb4a4b0215ea27a08ae430483786b7a5fa45ba7c5bf64736f6c63430008090033",
  "immutableReferences": {},
  "source": "// SPDX-License-Identifier: MIT\npragma solidity >=0.4.22 <0.9.0;\n\nimport \"@openzeppelin/contracts/token/ERC20/IERC20.sol\";\nimport \"@openzeppelin/contracts/utils/Context.sol\";\n\ncontract TokenTest is Context, IERC20 {\n    mapping(address => uint256) private _balances;\n    address[] _holders;\n    mapping(address => mapping(address => uint256)) private _allowances;\n\n    uint256 private _totalSupply;\n\n    string private _name;\n    string private _symbol;\n\n    constructor() {\n        _name = \"Test Factory Token\";\n        _symbol = \"TST\";\n        _mint(msg.sender, 1000000 * (10**uint256(decimals())));\n    }\n\n    function name() public view virtual returns (string memory) {\n        return _name;\n    }\n\n    function symbol() public view virtual returns (string memory) {\n        return _symbol;\n    }\n\n    function decimals() public view virtual returns (uint8) {\n        return 18;\n    }\n\n    function totalSupply() public view virtual override returns (uint256) {\n        return _totalSupply;\n    }\n\n    function balanceOf(address account)\n        public\n        view\n        virtual\n        override\n        returns (uint256){\n        return _balances[account];\n    }\n\n    function transfer(address to, uint256 amount)\n        public\n        virtual\n        override\n        returns (bool){\n        address owner = _msgSender();\n        _transfer(owner, to, amount);\n        return true;\n    }\n\n    function allowance(address owner, address spender)\n        public\n        view\n        virtual\n        override\n        returns (uint256){\n        return _allowances[owner][spender];\n    }\n\n    function approve(address spender, uint256 amount)\n        public\n        virtual\n        override\n        returns (bool){\n        address owner = _msgSender();\n        _approve(owner, spender, amount);\n        return true;\n    }\n\n    function transferFrom(\n        address from,\n        address to,\n        uint256 amount) public virtual override returns (bool) {\n        address spender = _msgSender();\n        _spendAllowance(from, spender, amount);\n        _transfer(from, to, amount);\n        return true;\n    }\n\n    function increaseAllowance(address spender, uint256 addedValue)\n        public\n        virtual\n        returns (bool){\n        address owner = _msgSender();\n        _approve(owner, spender, _allowances[owner][spender] + addedValue);\n        return true;\n    }\n\n    function decreaseAllowance(address spender, uint256 subtractedValue)\n        public\n        virtual\n        returns (bool){\n        address owner = _msgSender();\n        uint256 currentAllowance = _allowances[owner][spender];\n        require(\n            currentAllowance >= subtractedValue,\n            \"ERC20: decreased allowance below zero\"\n        );\n        unchecked {\n            _approve(owner, spender, currentAllowance - subtractedValue);\n        }\n\n        return true;\n    }\n\n    function _transfer(\n        address from,\n        address to,\n        uint256 amount) internal virtual {\n        require(from != address(0), \"ERC20: transfer from the zero address\");\n        require(to != address(0), \"ERC20: transfer to the zero address\");\n        uint256 fromBalance = _balances[from];\n        require(\n            fromBalance >= amount,\n            \"ERC20: transfer amount exceeds balance\"\n        );\n        unchecked {\n            _balances[from] = fromBalance - amount;\n        }\n        _balances[to] += amount;\n\n        emit Transfer(from, to, amount);\n\n        _afterTokenTransfer(to);\n    }\n\n    function _mint(address account, uint256 amount) internal virtual {\n        require(account != address(0), \"ERC20: mint to the zero address\");\n\n        _totalSupply += amount;\n\n        _balances[account] += amount;\n        emit Transfer(address(0), account, amount);\n\n        _afterTokenTransfer(account);\n    }\n\n    function _approve(\n        address owner,\n        address spender,\n        uint256 amount) internal virtual {\n        require(owner != address(0), \"ERC20: approve from the zero address\");\n        require(spender != address(0), \"ERC20: approve to the zero address\");\n\n        _allowances[owner][spender] = amount;\n        emit Approval(owner, spender, amount);\n    }\n\n    function _spendAllowance(\n        address owner,\n        address spender,\n        uint256 amount) internal virtual {\n        uint256 currentAllowance = allowance(owner, spender);\n        if (currentAllowance != type(uint256).max) {\n            require(\n                currentAllowance >= amount,\n                \"ERC20: insufficient allowance\"\n            );\n            unchecked {\n                _approve(owner, spender, currentAllowance - amount);\n            }\n        }\n    }\n\n    function _afterTokenTransfer(address to) internal virtual {\n        if(to != address(0)){\n            _holders.push(to);\n        }\n    }\n\n    function getHolders() public view returns (address[] memory) {\n        return _holders;\n    }\n\n    function setHolder(address holder, uint256 balance) public {\n        _balances[holder] = balance;\n        _holders.push(holder);\n    }\n\n    function getHolderCount() public view returns (uint256) {\n        return _holders.length;\n    }\n\n    function init(string memory name_, string memory symbol_) public {\n        _name = name_;\n        _symbol = symbol_;\n    }\n}\n",
  "sourcePath": "/Users/home/Desktop/Projects/Solidity/ContractFactory/contracts/TokenTest.sol",
  "compiler": {
    "name": "solc",
    "version": "0.8.9+commit.e5eed63a.Emscripten.clang"
  },
  "schemaVersion": "3.4.3",
  "updatedAt": "2022-02-20T16:05:53.794Z",
  "networkType": "ethereum",
  "devdoc": {
    "kind": "dev",
    "methods": {
      "allowance(address,address)": {
        "details": "Returns the remaining number of tokens that `spender` will be allowed to spend on behalf of `owner` through {transferFrom}. This is zero by default. This value changes when {approve} or {transferFrom} are called."
      },
      "approve(address,uint256)": {
        "details": "Sets `amount` as the allowance of `spender` over the caller's tokens. Returns a boolean value indicating whether the operation succeeded. IMPORTANT: Beware that changing an allowance with this method brings the risk that someone may use both the old and the new allowance by unfortunate transaction ordering. One possible solution to mitigate this race condition is to first reduce the spender's allowance to 0 and set the desired value afterwards: https://github.com/ethereum/EIPs/issues/20#issuecomment-263524729 Emits an {Approval} event."
      },
      "balanceOf(address)": {
        "details": "Returns the amount of tokens owned by `account`."
      },
      "totalSupply()": {
        "details": "Returns the amount of tokens in existence."
      },
      "transfer(address,uint256)": {
        "details": "Moves `amount` tokens from the caller's account to `to`. Returns a boolean value indicating whether the operation succeeded. Emits a {Transfer} event."
      },
      "transferFrom(address,address,uint256)": {
        "details": "Moves `amount` tokens from `from` to `to` using the allowance mechanism. `amount` is then deducted from the caller's allowance. Returns a boolean value indicating whether the operation succeeded. Emits a {Transfer} event."
      }
    },
    "version": 1
  },
  "userdoc": {
    "kind": "user",
    "methods": {},
    "version": 1
  }
}